:100000000C94CD020C94EA020C94EA020C94EA02DD
:100010000C94EA020C94EA020C94EA020C94EA02B0
:100020000C94EA020C94EA020C94BC130C94FE1299
:100030000C9466210C94EA020C94EA020C94EA02F5
:100040000C94EA020C94EA020C94EA020C94EA0280
:100050000C94EA020C94D7140C94EA020C94EA0271
:100060000C94EA020C94EA020C94EA020C94EA0260
:100070000C94EA020C94EA020C94EA020C94EA0250
:100080000C94EA020C94EA020C94EA020C94EA0240
:100090000C94EA020C94EA020C94EA020C94EA0230
:1000A0000C94EA020C94EA020C94EA02290629064E
:1000B0005C065C06CF06ED06FB07FB07F8066C073F
:1000C0007D077D0716113D11E6123D11E6128911DB
:1000D000AC11E612A112B112C025C325C625DD253B
:1000E000E525ED25EF25FE2505010902A101850283
:1000F0000901A10005091901290815002501950824
:10010000750181020501093009311581257F9502AC
:100110007508810609381581257F950175088106C6
:10012000050C0A38021581257F950175088106C0E6
:10013000C005010980A101850319012AB700150135
:1001400026B700950175108100C0050C0901A101B9
:10015000850419012AA002150126A0029501751037
:100160008100C00660FF0961A1010962150026FF38
:10017000009520750881020963150026FF0095206F
:1001800075089102C005010906A101050719E029BA
:10019000E715002501950875018102950175088113
:1001A000010507190029FF150026FF0095067508AF
:1001B0008100050819012905950575019102950130
:1001C00075039101C009025B00030100A0FA090454
:1001D000000001030101000921110100012240007A
:1001E0000705810308000109040100020300000063
:1001F00009211101000122220007058203200001CC
:1002000007050303200001090402000103000000A8
:10021000092111010001227B000705840320000150
:100220001201000200000008EDFE26150100010287
:10023000000118034E006F00720061006E0065003F
:100240006B006F00340032004300000018034400CC
:100250006100720061006B0075002D004E006500AA
:100260006B006F00000004030904296414001A00E5
:100270000800150017001C0018000C0012001300E5
:1002800031002B6104001600070009000A000B0072
:100290000D000E000F0033003400E1001D001B00B4
:1002A0000600190005001100100036003700380064
:1002B000E100025101512C0028002A4102510000A6
:1002C0000000000000000000000035021E021F02B6
:1002D00020022102220223022402250226022702F2
:1002E000350001001E001F002000210022005000E8
:1002F000510052004F002F00300003512300240012
:100300002500260027002D002D022E002E022F0290
:100310003002E2000100010001000100E6000000DF
:10032000000000000000000000003A003B003C001C
:100330003D003E003F0040004100420043004400B9
:100340004500010001000100010001000100010061
:100350000100010001000100010001000100010095
:1003600001000100010053003900470001000100B5
:1003700001000100E30001000100E30001000000B2
:10038000000000000000000000000100010001006A
:10039000010001000100C95CC75CC55CCB5CC35CAB
:1003A000C25C010001000100010001000100CA5C03
:1003B000C85CC65CCC5CC45C0100010001000100AB
:1003C000010001000100625D635D645D01000100E8
:1003D0000100010001000100005CDE5C0100000082
:1003E000000000000000000000000000000000000D
:1003F00000000000000000000000000000000000FD
:1004000000000000000000000000000000007E0F5F
:1004100000D4FFFFFFC700000078000000000000CC
:1004200000002A2B2800000000000000000000004F
:10043000000000000029000000002C1E34202122B2
:1004400024342627252E362D3738271E1F2021221B
:10045000232425263333362E37381F040506070894
:10046000090A0B0C0D0E0F10111213141516171884
:10047000191A1B1C1D2F3130232D350405060708C2
:10048000090A0B0C0D0E0F10111213141516171864
:10049000191A1B1C1D2F3130354C000101010101BF
:1004A000010101010202020202020202020303032D
:1004B00003030303030404040404040405050505FD
:1004C00005060606060607070707070808080809BD
:1004D0000909090A0A0A0B0B0B0C0C0C0D0D0D0E69
:1004E0000E0E0F0F0F1010111111121213131414FE
:1004F000151516161717181819191A1A1B1B1C1D73
:100500001D1E1E1F202021222223242425262627CB
:100510002829292A2B2C2D2D2E2F303132323334FD
:1005200035363738393A3B3C3D3E3F404142434403
:1005300045464748494A4C4D4E4F505153545556E5
:1005400058595A5B5D5E5F616264656668696B6C91
:100550006D6F7072737577787A7B7D7E808283850C
:1005600087888A8C8E8F91939596989A9C9EA0A24C
:10057000A3A5A7A9ABADAFB1B3B5B7BABCBEC0C256
:10058000C4C6C9CBCDCFD1D4D6D8DBDDDFE2E4E71A
:10059000E9EBEEF0F3F5F8FAFDFF11241FBECFEF03
:1005A000DAE0DEBFCDBF12E0A0E0B1E0E2E1FFE5BE
:1005B00002C005900D92A238B107D9F725E0A2E854
:1005C000B2E001C01D92A637B207E1F70E94E00831
:1005D0000C94872F0C9400001092FE020E948D2D27
:1005E0002FEF84E39CE0215080409040E1F700C071
:1005F00000009AE088E10FB6F894A8958093600017
:100600000FBE90936000FFCFA7E1B0E0EAE0F3E017
:100610000C94492F4B8B5C8B6D8B7E8B8F8B611178
:100620001092190586E09E01235F3F4FD901E82F04
:100630001D92EA95E9F795E0FE017396D9010190C4
:100640000D929A95E1F79C894E895F897B897D8718
:100650009E876F87598B488BF901DE0117960190B1
:100660000D928A95E1F7CE0107960E946F1F8111C6
:100670003EC086E0FE013796DE01119601900D9294
:100680008A95E1F7FF81E8856A857B8561157105AB
:1006900031F0EF3F31F481E0FF3F19F403C081E016
:1006A00001C080E080FD23C02091F30330E0C90148
:1006B0000196877099274091240450E0841795078C
:1006C00079F1F983EA837D836C8396E0929FD00170
:1006D000939FB00D1124AC50BC4FFE013196019098
:1006E0000D929A95E1F78093F3030E94E71E16E0BE
:1006F000809124049091F303891709F1189FC00198
:1007000011248C509C4F0E946F1F8823C1F0809150
:10071000240490E001968770992780932404E8CF01
:100720001092FE020E948D2D1092F3031092240469
:10073000EDEEF3E086E0DF011D928A95E9F767961A
:10074000E3E00C94652FA9E0B0E0E9EAF3E00C9453
:100750003C2FFC018081918123813481232B31F056
:100760009F3F31F491E08F3F19F403C091E001C045
:1007700090E090FD0DC57F0185E0DE0111960190AE
:100780000D928A95E1F7F701228189819A812223CE
:1007900049F00E949B2C182F682F89819A810E9412
:1007A000FE2C03C00E94CA2C182F69817A81812FE8
:1007B0000E9462228C01F7018281882309F447C0DC
:1007C000980122513F452031310508F033C48FEFA5
:1007D00093E00E94822E811143C04EEED42ED00EA3
:1007E00007EA11E0DD2069F00115F4E01F07C1F10F
:1007F000C8010E94822E811101C0DA940F5F1F4F41
:10080000F1CF1E821F8218861986BB24B39468011B
:100810002FEFC21AD20AC8010E94822E8E831F8235
:100820008823F1F09FEF980F933058F48F83BE82A6
:100830000E5F1F4FC6010E94822E8887882381F099
:100840006801CE0106960E94E6248601E0CF0031C1
:10085000FFE51F07B9F481E00E94382D0E940726AA
:1008600080912504877009F493C4F701828188235D
:1008700009F48EC48091970282FF8AC482E00E94AC
:10088000AE1E86C401312FE5120711F482E0E4CFD9
:100890000C3AFDE51F0761F4882311F380911A05D6
:1008A000882319F00E947022DBCF0E947E22D8CFCD
:1008B00090911A05911130C0882309F4B3C0013E0C
:1008C000110521F0023085E5180719F5809186029F
:1008D000882371F0F7018381948120918402309103
:1008E0008502821B930B8F3F9F4710F00E947E2250
:1008F00081E080938602F7012381348180910F018A
:1009000090911001820F931F90938502809384022F
:1009100089C01092860286C0D090FE02C0902E043C
:100920000E945A2188579C4E909318058093170572
:10093000F7019281992309F475C08C2D8D298D7949
:1009400009F06BC00115F5E51F07B0F4011523E5AB
:10095000120708F067C0011580E5180740F401157B
:10096000E0E41E0788F5063E1105B1F55BC00115F0
:10097000F2E51F0788F556C0011529E5120750F466
:10098000011588E5180708F04DC0043195E51907F1
:1009900019F548C0C801905681159042E8F4F70156
:1009A0008581807FB1F4812F8F718231B9F028F475
:1009B000823099F581EE90E013C0843199F186314F
:1009C00061F586EE92E10CC0F7018581807F09F424
:1009D000CFC0C801992704C0C80102C085EE90E0CD
:1009E000109219058832910530F48E319105C0F4CA
:1009F000049798F00EC08D32910559F018F48A973B
:100A000079F00BC08C34910559F08D32924041F051
:100A100004C082E08093190503C00E94702202C0C6
:100A20000E94721EF7018281811113C38091FE0220
:100A300082720A3CFCE51F0709F481C0B0F5053C51
:100A40009CE5190709F467C0D0F4033CFCE51F07D7
:100A500009F457C008F05AC0023C8CE5180709F0A9
:100A6000ABC09091270581E08927809327051092DC
:100A7000130180916504816080936504F1CE073C89
:100A80009CE5190709F451C008F44AC0083CFCE58C
:100A90001F0709F44FC0093C2CE5120709F08CC070
:100AA00049EF52E267E073E258C00F3C9CE519073A
:100AB00009F459C0A0F40C3CFCE51F0709F449C037
:100AC00008F442C00D3C8CE5180709F449C00E3CFF
:100AD0009CE5190709F070C061E085E046C0063D5D
:100AE000ECE51E0740F4013DFCE51F0708F0B8CE19
:100AF00061E08FE03AC00D352DE5120709F4B0CE64
:100B00005BC040E653E26BE673E227C04BE653E27C
:100B100060E673E222C041E353E26CE373E21DC07E
:100B20004CE353E261E373E218C045E153E263E250
:100B300073E213C043E253E265E173E20EC047E0A3
:100B400053E269EF72E209C048E151E266E271E204
:100B500004C046E251E268E171E20E94DF2280CEE9
:100B600061E081E002C061E08BE00E94472378CE23
:100B70000336FDE51F0709F470C204362DE51207A0
:100B800009F475C202368DE5180709F47FC299236E
:100B900009F44CCF0A358DE5180709F4F3C208F4BF
:100BA000CCC20C352DE5120709F4E4C208F4ECC2FE
:100BB000073A1D4509F4DCC2F701828100811181E9
:100BC000882349F0C8010E949B2CD82E682FC801A9
:100BD0000E94FE2C04C0C8010E94CA2CD82EB80165
:100BE0008D2D0E9462220E94521CB82E192F982E21
:100BF000F7010281A580A2949FE0A922809125049B
:100C00008770B9F00023A9F0812F807F803421F014
:100C100080E28B0D883068F08091970282FF09C0D6
:100C200082E00E94AE1E809125048770DD24D3945B
:100C30008111D12CC12EC2948FE0C8228C2D90E05E
:100C40008C30910508F0D7C1FC01EA5AFF4F0C9493
:100C50002D2F812F807F1F70882311F01295107F18
:100C60000023B9F0112309F4B4C180E28B0D883060
:100C700010F0911006C08091FE02182B1093FE0216
:100C800005C080911905182B109319050E94721E3A
:100C9000A0C18B2D0E94A82D112309F4ACC180E2C4
:100CA0008B0D883080F1992071F110958091190594
:100CB0001823109319052AC0812F807F1F7080325E
:100CC00011F01295107F8B2D992021F0F1E09F16E5
:100CD000D9F149C08091970282FD1BC0002369F0C1
:100CE000112339F08091FE02182B1093FE020E940E
:100CF000721E80E00E94E32D7EC180E00E94A82D3C
:100D0000112309F478C1812F0E946B1E0E94721E6C
:100D100072C1002381F080912E04AA2051F021E0BD
:100D2000A21207C0182B181709F465C110932E04DE
:100D300062C1812B10C0AA2021F081E0A81609F41D
:100D40005AC10E94651E27C0002341F095E09A1504
:100D500008F451C1812F0E949E2D4DC1E4E0EA1597
:100D600008F449C118C0002349F0AA2099F3F701FB
:100D7000858180FF2EC18F708583ECCFAA2059F02A
:100D8000893309F035C1FFEF27EE83E0F1502040B1
:100D90008040E1F72BC1812F0E94972D2CC1812F1C
:100DA00086958695837019F0813061F024C1002307
:100DB00021F08B2D912F937002C080E090E00E9473
:100DC000A5211FC1002321F08B2D912F937002C00C
:100DD00080E090E00E948F2114C18B2D002319F038
:100DE0000E94242C02C00E946B2B0E94412B09C13F
:100DF000812F8370A9F5011102C14B2D42954695B3
:100E00004770440F440F8B2D8F7090E09C01042E8F
:100E100001C0220F0A94EAF7B4FE08C08FE090E008
:100E200001C0880F4A95EAF7809501C080E01695C9
:100E300016951370123069F088F490915F041130A8
:100E400019F0822B892302C0922B892B0E94512DED
:100E5000D6C0822B90915F048927F8CF822BF6CFE2
:100E6000002319F0812F817001C08695882309F431
:100E7000C6C04B2D429546954770440F440F8B2DAD
:100E80008F7090E09C01042E01C0220F0A94EAF7B3
:100E9000B4FE08C08FE090E001C0880F4A95EAF7E1
:100EA000809501C080E0169516951370123059F0A8
:100EB00078F490915605113019F0822B892309C0DE
:100EC000922B892B06C0822B90915605892701C051
:100ED000822B0E94332D93C01F70002339F0812F85
:100EE0000E94452D8B2D0E949E2D89C08B2D0E9426
:100EF000972D812F0E94382D82C08B2D92EF99164D
:100F000081F1991538F0E0EF9E1659F0F1EF9F1638
:100F100019F15BC023EF921659F194EF9916C1F0C5
:100F200054C0002381F0E4E0EA1508F464C01F71A6
:100F300081E090E0012E01C0880F0A94EAF79091B9
:100F40005605892720C0F5E0FA1508F454C0EFCF04
:100F50008091970282FD1AC0002329F0812F8F71A2
:100F600027C00023D9F3812F8F710E94382D43C0F1
:100F7000002341F01F7181E0012E01C0880F0A9407
:100F8000EAF701C080E00E94332D35C0002399F0BC
:100F90001F71812F0E94452D8091970282FF07C00B
:100FA00028E0129FC0011124836080932504812FC3
:100FB0000E94452D20C081E00E94AE1E81E08A156E
:100FC000D0F482E00E94AE1E16C0002321F0AA20B9
:100FD00029F28B2D8FCEAA2031F2893349F49FEF6D
:100FE000E7EEF3E09150E040F040E1F700C0000090
:100FF0008B2D0E94A82D88EF8C0D843010F40E9458
:10100000BB21DD2009F4C4C08091250480FDC0C04F
:10101000F70112828595859585950E94452DC7011A
:101020000E94A303809125048595859585950E944E
:10103000382DAEC000319FE5190711F481E006C0DC
:101040000131EFE51E0709F023CC82E00E94452D17
:1010500005CC03369DE5190731F480910F0190917D
:101060001001059609C00436EDE51E0751F4809184
:101070000F019091100105979093100180930F013B
:10108000EFCB0236FDE51F0709F084CD80900F01FC
:1010900090901001809100019091010188169906AD
:1010A00039F480918D02803219F427E832E03BC098
:1010B000909201018092000180E280938D02A12C28
:1010C000B12C10928C022CE8C22E22E0D22E00E02D
:1010D00010E03AE0432E512C612C712CC501B40173
:1010E000A30192010E94EC2E605D603319F401159A
:1010F000110539F081149104A104B10419F460E2DE
:1011000001C060E3F60162936F01C501B401A30160
:1011100092010E94EC2E49015A010F5F1F4F0530CA
:101120001105E1F6C2CFC9012F5F3F4FFC0140819D
:101130004032C9F30E94E62493CB0115ECE51E076B
:1011400039F00E3D1C4509F037CD0E94FA1D10C044
:101150001092FE020E948D2DEFEFF4E32CE0E1509F
:10116000F0402040E1F700C000000E94C61478CB98
:101170000E94EC028091970282FB882780F991E01F
:10118000892703C081E001C080E00E94CB1E14CDFE
:101190002996E0E10C94582F982F92959F7019F0A2
:1011A000892F24E001C020E0982F9695969511F0A4
:1011B0002E5F892F982F969509F02F5F822F089523
:1011C000A1E3B0E0E6EEF8E00C943A2F85B7806832
:1011D00085BF85B7806885BF84B7877F84BF0FB61A
:1011E000F894A895809160008861809360001092C7
:1011F00060000FBE90E080E80FB6F8948093610025
:10120000909361000FBE84E49BE1909383028093EE
:1012100082020E9442130E9461138091E200846066
:101220008093E2007894809122058823A1F01091A8
:10123000E9001F709091EC00892F817090FD80E88B
:10124000182B1092E9008091E80083FD0E94311074
:101250001F701093E90082E084BD93E095BD9AEF82
:1012600097BD80936E000E94C622811102C00E9429
:10127000B62204E411E0D8018D918D018F3F11F069
:101280000E94891BB1E008341B07A9F708E411E0AC
:10129000F80181918F018F3F11F00E94891BF1E0CD
:1012A00004351F07A9F788E0EEEAF2E0DF01282FF6
:1012B0001D922A95E9F7EEE8F2E0DF011D928A958A
:1012C000E9F70E94EE1D811102C00E94FA1D82E022
:1012D00090E00E94822E80939A0284E090E00E9427
:1012E000822E182F82E290E00E94822E212F30E081
:1012F000382B30939702209396020E94A01BEFE3B5
:10130000FCE93197F1F700C000000E94A01B80911A
:10131000AE0280FF08C06FEF7FEF80E090E00E9498
:10132000BE2E0E94C61483E090E00E94822E0E948E
:10133000512D10922D05E6E4F5E08FEF9FEF81939C
:10134000919325E0E635F207D1F710923204EBE4F1
:10135000F4E08BE594E02FEF3FEF219331938E176C
:101360009F07D9F70E94EE1D811104C00E94FA1D4B
:101370000E94291B46E050E06CE170E087E295E0B6
:101380000E94722E10926504809127058C7F11F4C3
:101390000E94291B82E091E090931E0580931D0519
:1013A0008E010F5F1F4F80912205853009F066C0C6
:1013B00090E4E92EDD24D39423E0C22E30E1F32E15
:1013C00080912205853009F051C08091220584303A
:1013D00009F438C00E9490238091640481110DC0EB
:1013E0000E947B16109212018091270583708093D2
:1013F00011010E943421C0921301D0926404109212
:10140000210548E150E00FB6F894A895409360009C
:101410000FBEE092600083B7817F846083BF83B793
:10142000816083BF7894889583B78E7F83BF0FB622
:10143000F894A89580916000886180936000109274
:1014400060000FBE80910A03882309F4B9CF0E947F
:10145000A01BEEEAF2E081919191892B09F0A0C4E2
:1014600086EB92E08E179F07B1F7AACF1092FE028B
:101470000E948D2D0E94BB21109264040E94A01B2B
:10148000ABE9B2E0BCA7ABA7EEEAF2E0F9ABE8ABA0
:10149000DF01EBE9F2E0219131918D919D9182275D
:1014A000932722E0E33AF20719F0892BA1F322C037
:1014B000892B01F50E945A217C018091980290911C
:1014C0009902E816F90609F4EBC08FEF89A38AA305
:1014D0001BA20E945A218160782F9DA38CA349A151
:1014E0005AA16BA18DA10E940403F0929902E0928F
:1014F0009802D6C088E9282E81E0382E512CA8A960
:10150000B9A96D907D90B9ABA8ABEBA5FCA5808186
:1015100091819301282739273EA72DA7232B09F472
:10152000B1C0C12CD12CAA24A394B12C8DA59EA509
:101530008A219B21892B09F497C07301EA20FB20A3
:10154000CEA25FA281E0E114F10409F480E088A753
:101550000E945A218160782F9AA789A74EA15FA186
:1015600068A58AA50E940403109260041092610489
:101570001092620410926304EF2851F0F101EC0D17
:10158000FD1D80818F3F21F08FA74424439401C02B
:10159000412CE42CF12C80913204A701480F511DFD
:1015A00049305105ACF1E8E08E2E912C8E189F0841
:1015B000B7016F5F7F4F6E5C7B4FA40183E394E0C4
:1015C0000E947E2FB701675F7F4F6E5C7B4FA40147
:1015D0008BE394E00E947E2FA401440F551FB701B6
:1015E000660F771F675E7F4F6E5C7B4F8BE494E0E6
:1015F0000E947E2FB7016F5E7F4F6E5C7B4FA40110
:1016000083E494E00E947E2F88E084198093320462
:101610008091320490E05FA5A52FB0E09D01220FDC
:10162000331F28533E4FAA0FBB1FBD0167537E4F88
:1016300041E0480F9415B0F490E0FC01EE5CFB4FE4
:10164000D9015C915183DB015C915187BFA5B18BBE
:10165000880F991FFC01EE5CFB4F128E118E91E0FA
:10166000842FE6CF80933204AA0CBB1CEFEFCE1A76
:10167000DE0AFCE0CF16D10409F058CFABA5BCA51B
:101680006D927C925394EBA5FCA53296FCA7EBA738
:10169000FCE02F0E311C24E0521231CF0E940C15B9
:1016A00080911A05882369F00E945A21209117051C
:1016B00030911805821B930B8F3F9F4710F40E94B7
:1016C00070220E94902386E0EEE5F5E0D8010190BB
:1016D0000D928A95E1F710926005109261051092C3
:1016E0006205109263058B81811104C08C8188236F
:1016F00009F453C080915C0590915D050E94FD1432
:101700009C0190915805992309F46CC3253131054A
:1017100008F443C09F3F19F09F5F90935805FB80EA
:10172000FF2061F00E94042C1F1414F491E001C00A
:101730009FEF899F802D112480936005FC80FF20FE
:1017400061F00E94042C1F1414F491E001C09FEF7B
:10175000899F802D1124809361053091600533238A
:10176000E1F0209161052223C1F045EB3403C00173
:101770001124992319F09093600503C081E08093B0
:10178000600555EB2503C0011124992319F09093AE
:10179000610503C081E0809361058D81811104C0E2
:1017A0008E81882309F453C080915A0590915B057E
:1017B0000E94FD149C0190915705992309F417C3C9
:1017C0002135310508F443C09F3F19F09F5F909386
:1017D0005705FD80FF2061F00E94E22B1F1414F4D6
:1017E00091E001C09FEF899F802D112480936205B5
:1017F000FE80FF2061F00E94E22B1F1414F491E0A0
:1018000001C09FEF899F802D112480936305309143
:1018100062053323E1F0209163052223C1F045EBFB
:101820003403C0011124992319F09093620503C079
:1018300081E08093620555EB2503C00111249923B3
:1018400019F09093630503C081E08093630546E03F
:1018500050E0B8018EE595E00E94712F892BA9F424
:101860008091600581110FC08091610581110BC0CD
:1018700080916205811107C081E09091630591110B
:1018800003C080E001C081E080FD0E94412B86E022
:10189000F801AEE5B5E001900D928A95E1F70E945E
:1018A000BB219091A302891721F08093A3020E948B
:1018B0000C1580912205843009F075CD83E080936A
:1018C000E9008091E80082FF6ECD8091E80085FFFD
:1018D00021C00E94931481111BC090E2C92ED12C0B
:1018E000780109C08091F100D7018D937D01B1E0AD
:1018F000CB1AD10869F08091E80085FDF3CF809183
:10190000E8008B778093E8000E949314882399F372
:1019100091E001C090E08091E8008B778093E8002F
:10192000992309F440CD89818C3009F40EC188F5E2
:10193000853009F48EC0B8F4823009F454C030F414
:10194000813009F027C21A828AE004C1833009F489
:1019500073C0843009F01EC24C816B818A810E9461
:1019600034229D833DC2873009F481C008F47CC0D5
:10197000883009F4B6C0893009F00CC246E050E066
:101980006CE170E087E295E00E94902E1092650471
:1019900003C2813109F429C170F48E3009F4DCC02E
:1019A00008F4D5C08F3009F4FDC0803109F0F2C1D0
:1019B0000E94C821F1C1843790F4853608F056C1E1
:1019C000823109F415C1833109F0E4C1EA80FB805A
:1019D000FE24EF24FE24CC80D12C58013EC1853753
:1019E00009F4D4C1D7C18A81823009F4F2C18330AD
:1019F00051F0813009F0CEC10E940C159B838C837D
:101A00007D836E83C9C18091AE029091AF029B83AA
:101A10008C838091B0029091B1029D838E838091DE
:101A2000B2029091B3029F8388878091B402909113
:101A3000B50299878A87B0C18A81823009F0AAC12C
:101A40006B817C818D819E810E94332F0E94922226
:101A5000A3C12D813E813227232732274C816B8100
:101A60008A810E94D82198C10E94FF2195C18A8154
:101A70008138D1F070F4803809F08EC14B8128ECA8
:101A8000429F412D11248091280520E06091290575
:101A900024C08238B1F0833809F07EC18B8120E008
:101AA00040912A056C8119C060E08B810E94472318
:101AB0008B81811103C00E9477236EC10E94832312
:101AC0006BC1EB81E43028F4F0E0EC5AFE4F8081EA
:101AD00001C08FE780932B055FC190E00E94E62252
:101AE0005BC18A818138E1F078F4803809F054C113
:101AF00080912A05EFEF8E9FC001112468EC70E001
:101B00000E94C42E6B8348C1823879F0833809F073
:101B100043C1809128058B83809129058C833CC12A
:101B2000809127058695869515C080912B05873273
:101B300030F08F3530F08E3930F482E00BC080E029
:101B400009C081E007C083E005C080E14FC082E0AA
:101B50008A8389E58B8320C1EA80FB80FE24EF2401
:101B6000FE24CC80D12C5801C70189559E4F950188
:101B7000201B310B2C153D0508F00EC1F9E5EF16C1
:101B8000F2E0FF0630F40E94822ED50114968C9369
:101B900002C0F5011482FFEFEF1AFF0A2FEFA21A1D
:101BA000B20AE2CFEA80FB80FE24EF24FE24CC8040
:101BB000D12C5801C70189559E4F9501201B310B2F
:101BC0002C153D0508F0E8C039E5E31632E0F306D0
:101BD00028F4D50114966C910E94A02EBFEFEB1A49
:101BE000FB0AEFEFAE1ABE0AE5CF84E08A83D4C0C9
:101BF000EA80FB80FE24EF24FE24CC80D12C580107
:101C0000C70187969501201B310B2C153D0508F067
:101C1000C3C0F0E8EF16F1E0FF0630F40E94822E18
:101C2000D50114968C9302C0F5011482FFEFEF1AD0
:101C3000FF0A2FEFA21AB20AE3CF30E8E31631E031
:101C4000F30628F4D50114966C910E94A02EBFEFE4
:101C5000EB1AFB0AEFEFAE1ABE0AC7018796950191
:101C6000201B310B2C153D0540F396C078016E0109
:101C7000F1E2CF0ED11C82E0B82EAA24A394809169
:101C8000A402811114C0D7018C91882309F477C074
:101C900080931701A092A4021092A5021092AA02AA
:101CA0001092AB021092AC021092AD0268C081306B
:101CB00089F5E091A5028E0F8093A502F0E0EC5526
:101CC000FD4FD7019C919683843009F058C08091D4
:101CD000AA029091AB02A091AC02B091AD028093A8
:101CE000180190931901A0931A01B0931B0110924F
:101CF0001D0110921C01892B8A2B8B2BE1F1B092D4
:101D0000A4021092A6021092A7021092A8021092AA
:101D1000A90235C0823099F58091A6029091A70260
:101D2000A091A802B091A902AC01BD014F5F5F4F25
:101D30006F4F7F4F4093A6025093A7026093A80273
:101D40007093A902FC01EA54FD4FD7012C91208326
:101D50008091180190911901A0911A01B0911B0175
:101D6000481759076A077B0751F4E6EBF2E0F09356
:101D70001D01E0931C010E94AF251092A402FFEF09
:101D8000EF1AFF0AEC14FD0409F079CF83E291E029
:101D90000E94BC288FEF8983C8010E94BC2803CB16
:101DA000F9BC82E189BD09B400FEFDCF8091D80065
:101DB0008F7D8093D8008091E00082608093E00066
:101DC0008091E00081FDFCCF1092FE020E948D2DDB
:101DD000F7CA86E290E00E94822E1B821C821D823E
:101DE0008E83DACF2B30310508F096CCD6CC2B3051
:101DF000310508F0EBCC2BCD80910C0387FF11C08F
:101E00008091E80082FD05C0809122058111F8CF04
:101E100011C08091E8008B770BC080912205882348
:101E200049F08091E80080FFF8CF8091E8008E773C
:101E30008093E8000895982F973068F59093E90013
:101E4000981739F07091EC002091ED005091F0005E
:101E500003C0242F762F50E021FD02C09F5FECCFFE
:101E60003091EB003E7F3093EB003091ED003D7FF1
:101E70003093ED003091EB0031603093EB007093C4
:101E8000EC002093ED005093F0002091EE0027FD30
:101E9000E5CF80E008958F708093E90081E0089598
:101EA00020911203309113032617370748F061156C
:101EB000710539F42091E8002E772093E80001C0E5
:101EC000B901FC0120E06115710579F180912205CD
:101ED0008823F1F18530F1F18091E80083FD3CC069
:101EE0008091E80082FD2EC08091E80080FFEBCF5A
:101EF0002091F3008091F20090E0922B6115710522
:101F000051F08830910538F421912093F10061500F
:101F100071090196F3CF21E0089709F020E0809144
:101F2000E8008E778093E800CECF2111CFCF0AC092
:101F300080912205882361F0853061F08091E8006E
:101F400083FD0AC08091E80082FFF2CF80E008950F
:101F500082E0089583E0089581E0089508958091D6
:101F6000000308958093FA027093FC026093FB02D1
:101F7000809122058430F9F48093E9008FEF9091ED
:101F8000E800815095FD06C095ED9A95F1F70000A7
:101F90008111F5CF8091E80085FF0DC040E050E051
:101FA00063E070E08AEF92E00E9492288091E8005E
:101FB0008E778093E8000895BC0184E00E94B20F00
:101FC0000895BC0183E00E94B20F089524E020939D
:101FD000E9002FEF3091E800215035FD06C035EDC6
:101FE0003A95F1F700002111F5CF2091E80025FF87
:101FF0000BC040E050E066E070E00E9492288091C3
:10200000E8008E778093E8000895CF93DF9321E076
:102010002093E9002FEF3091E800215035FD06C0F4
:1020200035ED3A95F1F700002111F5CF2091E80048
:1020300025FF14C0EC0140E050E068E070E00E9431
:1020400092288091E8008E778093E80088E0FE0176
:10205000A1E0B3E001900D928A95E1F7DF91CF9175
:102060000895AAE2B0E0E7E3F0E10C94492FECE038
:10207000F3E084E193E02091F10021938E179F0714
:10208000D1F780910D03833009F463C030F48130BF
:1020900071F0823009F49FC0B6C08A3009F48BC059
:1020A0008B3009F46EC0893009F0ADC020C080913A
:1020B0000C03813A09F0A7C08091E800877F8093E4
:1020C000E8008091100390911103892B21F468E0BE
:1020D00081E093E003C060E080E090E070E00E9467
:1020E000500F8091E8008B778093E8008CC080913E
:1020F0000C03813209F087C0809110039091110385
:10210000009719F0029709F07EC08091E800877F60
:102110008093E8008091E80082FD05C0809122054F
:102120008111F8CF70C02091F3008091F20090E00F
:10213000922B029731F48091F100813011F08630BA
:1021400021F48091F100809300038091E8008B7767
:1021500056C080910C03813A09F055C0809110035C
:1021600090911103892B09F04EC08091E800877F80
:102170008093E8008091E80080FFFCCF80910E0101
:1021800039C080910C038132F1F580911003909158
:102190001103892BC1F58091E800877F8093E800C7
:1021A0000E94FC0E80910E0380930E011092FE029D
:1021B0000E948D2D28C080910C03813221F58091E1
:1021C000E800877F8093E8000E94FC0E80910F0357
:1021D0008093FF0218C080910C03813AA1F4809192
:1021E000E800877F8093E8008091E80080FFFCCFC3
:1021F0008091FF028093F1008091E8008E778093B8
:10220000E8000E94FC0E8091E80083FFDFC180910E
:102210000C0390910D03492F50E04A30510508F00E
:10222000D5C1FA01EE59FF4F0C942D2F803821F0C3
:10223000823809F0CBC108C08091090390910A034C
:10224000992389F082600FC0809110038F708730CE
:1022500008F0BCC18093E9008091EB0085FB8827E2
:1022600080F91092E9009091E800977F9093E80040
:102270008093F1001092F10070C1282F2D7F09F09A
:10228000A5C1882319F0823061F0A0C180910E03AE
:10229000813009F09BC1933009F080E080930A03FC
:1022A0002EC080910E0381112AC0809110038F707F
:1022B0002FEF280F263008F089C18093E900209184
:1022C000EB0020FF1CC0933021F48091EB00806272
:1022D00014C09091EB0090619093EB0021E030E00E
:1022E000A90102C0440F551F8A95E2F74093EA0006
:1022F0001092EA008091EB0088608093EB001092CE
:10230000E9008091E800877F8093E8000E94FC0E3E
:102310005DC181115BC110910E031F778091E300B5
:102320008078812B8093E3008091E800877F809301
:10233000E8000E94FC0E8091E80080FFFCCF8091B5
:10234000E30080688093E300111102C082E001C0C5
:1023500083E0809322053AC18058823008F036C16C
:1023600020910E0330910F032C3D53E0350779F592
:1023700083E08A838AE289834FB7F894DE0113965B
:1023800020E03EE051E2E32FF0E050935700E4916B
:1023900020FF03C0E295EF703F5FEF708E2F90E05B
:1023A000EA3010F0C79601C0C0968D939D932F5FC1
:1023B000243149F74FBF8091E800877F8093E80080
:1023C0006AE270E0CE0101960E94500FB4C0809185
:1023D000100390911103432F552743305105A9F065
:1023E00068F44130510509F400C14230510509F04B
:1023F000EDC08BE590E0E5ECF1E04BC041325105DA
:1024000029F14232510589F1E1C0C9019927813092
:102410009105A1F058F0029709F0D8C0E2E3F2E08C
:10242000E4918E2F90E0E2E3F2E030C0E6E6F2E0E5
:10243000E4918E2F90E0E6E6F2E028C0ECE4F2E0D2
:10244000E4918E2F90E0ECE4F2E020C0833091051F
:1024500008F0BCC0880F991FFC01EF59FE4F019096
:10246000F081E02D89E090E014C08330910508F000
:10247000ADC0FC01EE0FFF1FE55AFE4F0190F08149
:10248000E02DDC01A85ABE4F8C9190E0009709F432
:102490009DC02091E800277F2093E800209112033F
:1024A000309113032817390708F4C90140E0009759
:1024B00089F120912205222309F43DC02530D9F16C
:1024C0002091E80023FD37C02091E80022FD2FC0B5
:1024D0002091E80020FFEBCF4091F3002091F20023
:1024E00030E0342B009759F02830310540F4449106
:1024F0004093F100319601972F5F3F4FF3CF41E0BA
:102500002830310509F040E02091E8002E77209333
:10251000E800CDCF4111CDCF0AC08091220588239C
:1025200051F0853041F08091E80083FD04C0809136
:10253000E80082FFF2CF8091E8008B778093E8007B
:1025400045C0803809F042C08091E800877F8093C1
:10255000E80080910B038093F1008091E8008E7772
:10256000D3CE811133C080910E0390910F03992730
:10257000029764F58091E800877F8093E8001091CE
:102580000E0310930B030E94FC0E111106C08091E4
:10259000E30087FD02C081E001C084E08093220552
:1025A00042E061EC81E00E941B0F42E261EC84E0BA
:1025B0000E941B0F42E261EC82E00E941B0F42E28C
:1025C00060EC83E00E941B0F809122058091E8005F
:1025D00083FF10C08091E800877F8093E80080919E
:1025E000EB0080628093EB0005C082E190E0E0E2C6
:1025F000F2E04FCFAA96E3E00C94652F1F920F9262
:102600000FB60F9211242F933F934F935F936F93C5
:102610007F938F939F93AF93BF93CF93DF93EF936A
:10262000FF93C091E900CF708091EC00D82FD1705A
:1026300080FDD0E81092E9008091F000877F8093C0
:10264000F00078940E9431101092E9008091F0001F
:1026500088608093F000CD2BCF70C093E900FF918C
:10266000EF91DF91CF91BF91AF919F918F917F912A
:102670006F915F914F913F912F910F900FBE0F90EF
:102680001F901895E8EDF0E080818E7F8083109296
:10269000E2001092DA001092E100A0EEB0E08C911E
:1026A00081608C9380818F77808319BCA7EDB0E027
:1026B0008C918E7F8C9380818F7E80831092FD021F
:1026C0000895A0E0B0E0E7E6F3E10C94442FC8EDF4
:1026D000D0E088818F7E8883E7EDF0E080818160A3
:1026E000808384E082BF81E08093FD0288818E7FB9
:1026F000888302EE10E0F80110821092DA0081EE79
:10270000C82ED12CF601108288818F77888388812A
:102710008068888388818F7D888319BC1092220508
:1027200010920B0310920A031092090390EEE92E07
:10273000F12CF70180818B7F808388818160888381
:1027400042E060E080E00E941B0FF60180818E7FF6
:102750008083F801808181608083808188608083AC
:10276000F70180818E7F8083888180618883CDB7E7
:10277000DEB7E8E00C94602F1F920F920FB60F9215
:1027800011242F933F934F935F936F937F938F9376
:102790009F93AF93BF93EF93FF938091E10082FFEC
:1027A00009C08091E20082FF05C08091E1008B7F2B
:1027B0008093E1008091DA0080FF2AC08091D800E8
:1027C00080FF26C08091DA008E7F8093DA008091AE
:1027D000D90080FF18C080E189BD82E189BD09B4BC
:1027E00000FEFDCF81E0809322058091FD028111E2
:1027F0000FC00E9442130E9461138091E200846026
:102800008093E20005C019BC109222051092FD02CF
:102810008091E10080FF17C08091E20080FF13C02B
:102820008091E2008E7F8093E2008091E2008061DF
:102830008093E2008091D80080628093D80019BC18
:1028400085E0809322058091E10084FF30C0809173
:10285000E20084FF2CC080E189BD82E189BD09B41A
:1028600000FEFDCF8091D8008F7D8093D8008091AD
:10287000E1008F7E8093E1008091E2008F7E809363
:10288000E2008091E20081608093E20080910B037E
:10289000882311F084E007C08091E30087FD02C027
:1028A00081E001C083E08093220580912205809120
:1028B000E10083FF27C08091E20083FF23C0809165
:1028C000E100877F8093E10082E0809322051092EF
:1028D0000B038091E1008E7F8093E1008091E20004
:1028E0008E7F8093E2008091E20080618093E2001D
:1028F00042E060E080E00E941B0F8091F000886061
:102900008093F000FF91EF91BF91AF919F918F91D4
:102910007F916F915F914F913F912F910F900FBEDB
:102920000F901F9018952091E4003091E50095E6F6
:102930004091EC00842F817040FF23C08091E8001B
:1029400080FD1DC080912205882399F0853099F083
:102950008091EB0085FD11C04091E4005091E500AD
:102960002417350729F3915011F09A01E1CF84E043
:10297000089582E0089583E0089581E0089580E05D
:1029800008954091E80042FFDDCF089587E797E77B
:1029900090930108809300089AE088E10FB6F894BC
:1029A000A895809360000FBE90936000FFCF78944D
:1029B0001F920F920FB60F9211248F939F93AF9394
:1029C000BF938091F6029091F702A091F802B09126
:1029D000F9020196A11DB11D8093F6029093F702B2
:1029E000A093F802B093F902BF91AF919F918F919C
:1029F0000F900FBE0F901F9018959C014FB7F89441
:102A00008091F6029091F702A091F802B091F9023C
:102A10004FBF821B930B08952FB7F8946091F60275
:102A20007091F7028091F8029091F9022FBF0895FA
:102A3000EF92FF920F939701201B31092F3F310531
:102A400019F010F02FEF30E02095382F320F08F4F6
:102A50003FEF832F0F91FF90EF900895EF92FF9239
:102A60000F939701201B31092F3F310519F010F00A
:102A70002FEF30E0322F3095482F430F08F44FEFFF
:102A8000842F620F0F91FF90EF900895EF92FF92C5
:102A90000F93972F093438F4B701601B71096F3F0A
:102AA000710519F010F06FEF70E0485F5F4F413132
:102AB000510540F0A901485F5F4F4131510510F0C9
:102AC0006FEF70E06095482F460F08F44FEF842FAA
:102AD00037FF02C02D5F3F4F3595279535952795D8
:102AE00060912805620F792F0F91FF90EF90089564
:102AF000EF92FF920F93E00EF11CF90137FF03C034
:102B0000F195E195F10924E0EE0FFF1F2A95E1F719
:102B1000EF3FF10519F014F0EFEFF0E09A0157FFE5
:102B200003C031952195310994E0220F331F9A9506
:102B3000E1F72E173F070CF4F901EE0DFF1DEF3FF3
:102B4000F10519F010F0EFEFF0E02E2F2095382F5F
:102B5000320F08F43FEF832F0F91FF90EF9008950D
:102B600022E8241B08F420E0620F08954095282FE6
:102B7000429F412D1124842F0895E42FF0E0EE0FA1
:102B8000FF1FE853FE4F9081921B97FD9195292FCF
:102B900038E1239F212D1124620F08950F931F9375
:102BA00010E0F801EE0FFF1FE853FE4F90819057A1
:102BB00097FD9195000F111FF801E856FE4FE1A90E
:102BC000F0E0B097DF01AA0FBB1F8D010E0F1F1F92
:102BD0002003D001219FB00D1124E8E3F0E0E91BB0
:102BE000F10997FDF3959F01220F331F89010E0F05
:102BF0001F1F40039001419F300D11242A0F3B1FDE
:102C000037FF02C021583F4F220F232F221F330BC3
:102C1000620F1F910F9108950F931F93522F10E091
:102C2000F801EE0FFF1FE856FE4FE1A9F0E0B09764
:102C3000EE0FFF1F9F015203D001539FB00D1124CF
:102C4000000F111FF801E853FE4F008110E00057FC
:102C50001109000F111F40039001419F300D1124F5
:102C60002A0F3B1F37FF02C021583F4F220F232F4F
:102C7000221F330B620F1F910F9108950E940021B4
:102C800008950F931F93CF93DF93D62F072F182FFD
:102C9000C42F822F0E941D2AEC2FF0E0EE0FFF1FA1
:102CA000E853FE4F90819058890F87FD8195880FDA
:102CB000682F2CE0629F612D11246D0F702F812FE2
:102CC000DF91CF911F910F91089520912B0530E155
:102CD000230F08F42FEF60E1822F90E00E94AD2ACD
:102CE000BC0188EB9BE00E94C42E80E090E0089538
:102CF0000E940C210895A4E0B0E0E1E8F6E10C9414
:102D00003B2F782E8091120187110DC0209127054D
:102D1000237030E04091110150E081E02417350725
:102D200019F480E001C081E08170809316018091E8
:102D30002C0590911501981739F08093150140E00A
:102D400060E080E00E943E169FE0791254C081ED61
:102D500099E20E943C2814C0E71508F48CC2F3E005
:102D60007F1609F451C0F71508F043C135E073161A
:102D700009F482C1371530F48FE599E20E942127CA
:102D80008A8324C0E09114018CE0E89F802D1124F7
:102D90008983845F8B838C3310F0FBE3FB83E090AB
:102DA0002905D0902A0520912B0530E4F32E3F2DE4
:102DB000329F312D1124F32EEB81F981FE1708F497
:102DC00030C221E02A83EB3308F022C18091140144
:102DD0008F5F809314018A81811137C482E08093D0
:102DE000130180911601811130C471102EC483E04B
:102DF000809313012AC4971508F469C2E7E07E1294
:102E0000ABCF83E399E2BACF909114018CE0989F05
:102E1000802D11248983845F8B838C3310F0EBE346
:102E2000EB8300912905D0902A0520912B0510E411
:102E3000129F112D112439818B81381730F5F981BA
:102E4000EF2EF12CF701E25CFD4F9081809115018E
:102E50008923B9F0F701EE0FFF1FE856FE4F81A955
:102E600082958F7060912805819F600D1124702FCD
:102E70008D2D0E94B72A462F282F672FC7010E9449
:102E8000781629812F5F2983D6CF91E09A83ADC030
:102E9000E71508F464C380911601882329F040E007
:102EA00060E080E00E943E16809114019CE0899FC2
:102EB000802D1124845F898340912305509124053E
:102EC00060912505709126058091E1039091E203C0
:102ED000A091E303B091E40384179507A607B70711
:102EE00008F080C0609128057091290580912A051D
:102EF0000E94B72A662E572E482E09EC13E028E9C7
:102F000031E03C832B8348EC842E41E0942EAB804F
:102F1000BC806501780135E0332EF7018081F60130
:102F2000882309F421C38081242D462D652D90E04E
:102F30000E947816F5018385242D462D652D90E09D
:102F40000E947816F701818181937F013A94FFEF07
:102F5000CF1ADF0A21E0A21AB1083110DECFF80142
:102F60008581EB81FC81882309F40BC38581242DA5
:102F7000462D652D90E00E947816EB81FC818681BC
:102F8000242D462D652D90E00E9478160E943E2A41
:102F9000837091E009F090E0F80195830A5F1F4F7C
:102FA0002B813C81245F3F4F3C832B838216930609
:102FB00009F0ADCF0E9465160091230510912405FC
:102FC0002091250530912605DC01CB01800F911F52
:102FD000A21FB31F8093E1039093E203A093E30346
:102FE000B093E40331E03A8389818B3308F4EECE69
:102FF0000FC021E0721671F0271508F478C0809197
:103000001601882329F040E060E080E00E943E162F
:103010001A82DCCE809114012CE0829F802D112435
:103020008983845F8B838C3310F03BE33B83609117
:1030300028057091290580912A050E94B72A162F2C
:10304000072FF82EE981FB81EF1708F04AC089812C
:10305000E82FF0E0DF01A25CBD4F8C91909115014B
:10306000982331F02F2D412F602FCF010E94781629
:1030700099819F5F9983E6CF309114018CE0389F4E
:10308000802D11248983845F8B838C3310F08BE334
:103090008B830091280510912905F0902A056091F5
:1030A0002B0566956695669580912305909124057C
:1030B0000E94AD2A0E941D2A805887FD8195880FA5
:1030C000282F3F2D239F212D1124822FB8010E94EC
:1030D000B72A162F072FF82EE981FB81EF1708F486
:1030E0008BC021E02A83FB3308F470CE91CF30915E
:1030F00014018CE0389F802D11248983845F8B8399
:103100008C3310F08BE38B830091290510912A05F5
:10311000F09028056F2D702F812F0E94B72AE62E80
:10312000D72EC82E60912B056F0D702F812F0E9416
:10313000B72A162F072FF82E2B8139813217D0F49A
:10314000E9818E2F90E0FC01E25CFD4F30812091FF
:103150001501232359F030FF04C02F2D412F602F7C
:1031600003C02C2D4E2D6D2D0E947816F981FF5F26
:10317000F983E2CF81E08A833BC0871508F4C6C19A
:10318000309114018CE0389F802D11248983845F55
:103190008B838C3310F08BE38B8300912905109186
:1031A0002A05F090280560912B0566956695669531
:1031B00080912305909124050E94AD2A0E941D2A2A
:1031C000805887FD8195880F682F2CE0629F612DC4
:1031D00011246F0D702F812F0E94B72A162F072FF1
:1031E000F82EF9812B81F21708F47BC131E03A8384
:1031F0002B3308F4EBCD0CCF8981E82FF0E0DF0111
:10320000A25CBD4F8C9190911501982331F02F2D28
:10321000412F602FCF010E94781699819F5F99837B
:103220005BCF8981082F10E0F801E25CFD4F9081AF
:10323000809115018923D9F0F801EE0FFF1FE853A3
:10324000FE4F6081F69EB001112425E075956795CB
:103250002A95E1F780912805680F7E2D8D2D0E941B
:10326000B72A462F282F672FC8010E947816998108
:103270009F5F9983A1CD8BE0781203C088E299E229
:103280007DCD871570F099E0791203C082EE99E246
:1032900060CD971518F080E09AE25BCD81E399E26A
:1032A0006DCDEDE07E120BC080E199E205C03715CF
:1032B00008F40EC18DEB99E20E94C02761CDE7159D
:1032C00018F08FE199E25ACD84E89AE242CDF7E115
:1032D0007F12ECC04091C5035091C6036091C703B3
:1032E0007091C8038091230590912405A091250534
:1032F000B091260584179507A607B70708F488CE6E
:103300008091160181110EC0809114019CE0899F6B
:10331000802D11248983082F045F0C3308F459C0D1
:103320000BE357C040E060E080E00E943E1614E1ED
:10333000E12E13E0F12E00E010E08FE7D82E0E947E
:103340003E2A81FF05C0F7011082118212821EC041
:103350000E943E2AC82E0E943E2A8695782F2D2D47
:10336000720F08F47FEFC801880F991F800F911F1B
:103370008C5E9C4F9C838B836C2D80912A050E94D0
:10338000B72AEB81FC816083718382830F5F1F4FBB
:10339000F3E0EF0EF11C0B33110589F6B5CF29814F
:1033A000822F90E0FC01E25CFD4F308120911501FD
:1033B000232361F0FC01EE0FFF1FE80FF91FEC5E05
:1033C000FC4F2281408161810E94781639813F5FE4
:1033D00039838981801718F391E09A830B3308F0C1
:1033E0001A820B3308F4F2CC20E010E001501109EE
:1033F000822F90E080179107C4F4DC01AA0FBB1F55
:10340000A80FB91FAC5EBC4F0196FC01EE0FFF1F69
:103410008E0F9F1FFC01EC5EFC4FC080D180E280CC
:10342000CD92DD92EC922F5FE3CF0E943E2A78018D
:10343000EE0CFF1C81FF09C00E0D1F1DF801EC5E94
:10344000FC4F10821182128218C00E943E2A89838A
:103450000E943E2A8695782F2FE7720F08F47FEF9F
:103460000E0D1F1D0C5E1C4F698180912A050E9464
:10347000B72AF8016083718382830E9465160091E8
:103480002305109124052091250530912605DC01A6
:10349000CB01800F911FA21FB31F8093C503909390
:1034A000C603A093C703B093C80390CCF71588F167
:1034B00023E1721205C08EEC95E10E946B2760CC6F
:1034C000271548F031E17312F2CE82EE98E2F5CF83
:1034D0008CE096E1F2CF85E178124FCE81E496E15F
:1034E0004DCC9981E92FF0E0DF01A25CBD4F8C91BA
:1034F00090911501982331F02F2D412F602FCF018E
:103500000E947816E981EF5FE9836BCE8DEB95E140
:1035100035CC9BE179121BC080912D0521E0382F1D
:10352000321B08F430E0832F68E775E10DC07F1689
:1035300008F043C080912D0521E0382F321B08F49C
:1035400030E0832F66E475E10E94132619CC9715AD
:1035500030F1E9E17E129CCC86EB95E102C080EB74
:1035600095E10E94B2260CCC808120E040E060E032
:1035700090E00E947816F501838520E040E060E04D
:10358000DECC858120E040E060E090E00E9478168B
:10359000EB81FC81868120E040E060E0F4CCFDE13D
:1035A0007F12C5CF80912D0521E0382F321B08F402
:1035B00030E0832F6EE275E1C7CF2EE172120BC0AF
:1035C00080912D0521E0382F321B08F430E0832F45
:1035D00068E175E1B9CF3FEF731231C080912305E7
:1035E00090912405A0912505B091260588279C700F
:1035F000AA27BB272AE0B695A795979587952A9580
:10360000D1F782309105A105B10571F083309105A4
:10361000A105B10569F040E00197A105B10511F0E0
:1036200060E008C064E102C044E160E080E003C003
:1036300044E164E184E10E943E1682E0D9CB8091AE
:1036400014018F5F80931401C9CB2496E1E10C949F
:10365000572FE7E2F5E081E380838091200190918C
:103660002101A091220181839283A3838FE7848328
:103670008FEF858346E050E06CE170E0CF010E945F
:10368000902E10926504089580E00895909196021E
:1036900092FF0DC0282F2871283019F4877F84608D
:1036A00006C0282F2471243011F48B7F886093FF8B
:1036B0000DC0282F2871283119F4877E846106C037
:1036C000282F2471243111F48B7E88612091970278
:1036D00020FF0DC0382F3871383019F4877F816092
:1036E00006C0382F3171313011F48E7F886021FF90
:1036F0000DC0282F2871283119F4877E816106C0FA
:10370000282F2171213111F48E7E886194FD877EEE
:103710000895F894E82FE295EF70F0E031A1282F9A
:103720002F7081E090E001C0880F2A95EAF7982F6A
:103730009095932391A392A1892B82A378940895C5
:10374000A8E0B0E0E6EAFBE10C943E2FAE014F5F4B
:103750005F4F7A0188E0FA0111928A95E9F704E453
:1037600011E06A0198E4692E91E0792E882483940F
:10377000912CF80180818F3F09F447C0F894E82F1D
:10378000E295EF70F0E021A18F70A40102C0440F18
:10379000551F8A95E2F7CA01922F982B91A392A107
:1037A0008095892382A3789400C0E8E4F1E021E0C9
:1037B00030E0A12CB12C41914F3F89F0A42FA2956C
:1037C000AF70B0E090968C9190E04F7002C09595EC
:1037D00087954A95E2F780FD02C0C90102C080E0EA
:1037E00090E0A82AB92A220F331F51E0E435F507EB
:1037F00011F7F80180818F3F11F00E94891BF0EAD8
:10380000FA95F1F7F601B182A0820F5F1F4FF2E047
:10381000CF0ED11C6016710609F0ABCF48E050E026
:10382000B7018EE892E00E94712F892B89F088E021
:10383000F701AEE8B2E001900D928A95E1F781E0E0
:10384000809331040E945A219093300480932F0476
:1038500080913104811102C080E020C080912F044A
:10386000909130040E94FD140597B0F348E050E0B9
:103870006EE872E08EEA92E00E94712F892B59F077
:1038800088E0EEE8F2E0AEEAB2E001900D928A95AF
:10389000E1F781E001C080E0109231042896EEE06B
:1038A0000C945A2FCF93DF938238910569F1B0F4CD
:1038B0008133910509F477C048F48932910509F400
:1038C00069C08A32910509F473C092C085339105AD
:1038D00009F45BC089339105B9F08AC0833E910534
:1038E00091F138F4803E9105D1F0823E910531F19D
:1038F0007FC0863E9105D9F1873E9105E9F1843E6E
:10390000910509F075C028C02091960220FD5BC08A
:1039100021FD59C02091970223FD61C069C08091AB
:10392000960280FD4AC08091970280FF4CC0809132
:10393000960284FD4EC183EE90E04DC180919602C7
:1039400082FF3EC0F4CF8091960282FD39C0809103
:10395000970280FD38C0EBCF8091970281FF39C07C
:103960008091960284FD35C187EE90E034C180914C
:10397000960283FF2BC0F4CF8091960283FD26C070
:103980008091970281FD25C0EBCF8091960285FD45
:1039900026C022C08091960285FD1EC080919702AC
:1039A00083FF1DC00AC08091960286FD1BC01DC00A
:1039B0008091960286FD19C015C089E390E00BC185
:1039C00082EE90E008C180EE90E005C186EE90E0C6
:1039D00002C184EE90E0FFC085E390E0FCC089E284
:1039E00090E0F9C08AE290E0F6C081E390E0F3C095
:1039F000811531E5930708F061C0811520E5920734
:103A0000B0F09C012370332741E050E002C0440F26
:103A1000551F2A95E2F7282F2695269580E2289FA4
:103A200090011124CA01822B932B9D68D4C0883E3B
:103A3000910568F5803E910508F0CDC0883A910562
:103A4000B8F4853A910548F0855AE82FF0E0E95935
:103A5000FE4F808190E09064BEC08130910509F4F2
:103A6000B5C008F4B6C08430910508F4B2C0B3C044
:103A70008F3B910508F0ADC0885AE82FF0E0EE0FBB
:103A8000FF1FE659FE4F808191819464A4C0811587
:103A900030E2930758F4811521E0920708F09BC0AB
:103AA000803F910508F495C0906595C0811530E47C
:103AB000930708F48EC09F70906A8DC0811525E52C
:103AC000920708F042C0811534E5930728F0982F3B
:103AD0008827846F906A7FC0811523E59207B0F034
:103AE0009C012370332741E050E002C0440F551F72
:103AF0002A95E2F7282F2695269580E2289F9001A7
:103B00001124CA01822B932B9A6865C0811532E576
:103B1000930728F4982F8827816F906A5CC09C01D6
:103B20002370332741E050E002C0440F551F2A950F
:103B3000E2F7282F2695269580E2289F90011124F0
:103B4000CA01822B932B9C6846C0EC01C11589E504
:103B5000D807B0F4C11528E5D20728F09C2F882794
:103B6000806F906A38C0C11536E5D30790F58C2F69
:103B70000E94461B8F7190E0982F882790622BC07F
:103B8000C1158AE5D80790F48C2F8F700E94461BD0
:103B900094E0D695C7959A95E1F7CF70D0E0DC2FE9
:103BA000CC27D0699E01282BC90115C0CE019056A3
:103BB0008115904270F48D2F8F710E94461B282F23
:103BC0002F71CE0199279062922B05C081E090E081
:103BD00002C080E090E0DF91CF91089580E090E016
:103BE0000E948A2E883E9E4F19F40E94C622089594
:103BF00080E0089568EE7EEF80E090E00E94BE2EA7
:103C000060E082E090E00E94A02E60E083E090E01F
:103C10000E94A02E10925F0460E084E090E00E9479
:103C2000A02E64E082E290E00E94A02E60E085E099
:103C300090E00E94A02E60E086E090E00E94A02E1E
:103C40006FEF87E090E00E94A02E40E050E0BA01C4
:103C500088E090E00E94B22E60E08DE090E00E944B
:103C6000A02E40E050E0BA0188E190E00E94B22E20
:103C700060E087E190E00E94A02E40E050E0BA01B1
:103C80008CE190E00E94B22E60E070E080E290E073
:103C90000E94BE2E40E050E0BA0188E190E00E9410
:103CA000B22E80E00E9497220E94B62240E050E0AF
:103CB000BA018FE090E00E94B22E40E050E0BA01DD
:103CC00083E190E00E94B22E089580912E0481112C
:103CD00010922E04089580959091FE02892380937E
:103CE000FE0208959091FE0280911905982B909301
:103CF000E50380912E04882389F0892B8093E503C6
:103D0000E7EEF3E097E080E0915029F02191222343
:103D1000D9F38F5FF9CF81110E94651E48E050E012
:103D200066E274E085EE93E00E94712F892BA9F082
:103D300088E0E5EEF3E0A6E2B4E001900D928A950A
:103D4000E1F7E0911D05F0911E05309731F00280FA
:103D5000F381E02D85EE93E00995089520912504E7
:103D60008095822380932504982F977099F430E0F2
:103D7000482F082E000C550B2417350759F0909149
:103D8000970292FF07C08595859585950E94382DED
:103D9000109225040895CF93C0919702C2FB9927F2
:103DA00090F9981791F080FBC2F9C0939702609147
:103DB000960284E090E00E94A02E6C2F82E290E0B8
:103DC0000E94A02E82E00E94AE1ECF9108958091A5
:103DD00024049091F303891719F08F5F8770FBCF4C
:103DE0000895EF92FF920F931F93CF93DF938091EB
:103DF000F20382958F7009F060C08091EF038823F1
:103E000009F45BC080912404F090F3031091ED035A
:103E10000091EE036091F0037091F10391E01F3F78
:103E200009F090E0C0910F01D0911001292F96E088
:103E3000E92E8F1509F441C06115710521F00F3F7E
:103E400021F030E003C031E001C0322F90E030FDBE
:103E500031C0E89EF001E99EF00D1124DF01AC5065
:103E6000BC4F11963C911197301324C03C913113F3
:103E700021C012963C91129731111CC013964D919E
:103E80005C911497461B570B4C175D0798F4809173
:103E9000F2038F7080618093F203E750FC4F8081C2
:103EA0008F70806180838DEE93E00E94A3030E9457
:103EB000E71E03C001968770BCCFCDB7DEB7E6E042
:103EC0000C94622FCF93DF93EC010E949B2CBE01D8
:103ED0000E9462220E94521CDF91CF910895A1E1BD
:103EE000B0E0E5E7FFE10C94412F8C0185E0F8019B
:103EF000DE011D9601900D928A95E1F7D801129688
:103F0000EC909091ED03E091EE034091F00350911D
:103F1000F1034115510531F0EF3F31F481E09F3F4E
:103F200019F403C081E001C080E0B82FB1709B2E6E
:103F300080FD23C1D8013C9111962C9111971396C5
:103F4000CD90DC9014978DEEA82E83E0B82EF090E3
:103F5000EF03B601641B750B40910F0150911001E6
:103F6000FF2009F4C7C08091F2036417750708F0B9
:103F700092C0482F407F09F051C0E21311C0931343
:103F80000FC0FE2CE1100CC08F7080618093F20393
:103F9000C5010E94A3038091F203F80185832BC120
:103FA000C114D10431F02F3F31F481E03F3F19F4C7
:103FB00003C081E001C080E080FD03C081E08E2568
:103FC00002C080E090E0F82FF170FF2E80FF1CC04F
:103FD000809124044091F30356E0841709F4E8C06B
:103FE00090E0589FF001599FF00D1124EC50FC4FC8
:103FF0006181261306C06081631303C06281E612EB
:1040000003C001968770E9CFFE2CEE2009F4F3C0BF
:104010008091F20381608093F20349C0E21306C0ED
:10402000931304C0E11002C0F80186C0C8010E94C9
:10403000562D882351F1EE2041F12091F203822F79
:1040400082958F7090E0029774F08091ED039091CB
:10405000EE0398878F831986DB86CA862C87CE016C
:1040600007960E94A30386E0F801ADEEB3E001904D
:104070000D928A95E1F70E94F11E0AC0E217C9F07D
:10408000C8010E94562D81111EC0C8010E94A303C1
:10409000FF24F394B0C0482F407F81F78DEE93E06A
:1040A0000E94A30386E0D5011D928A95E9F7F12CC1
:1040B000A2C09313E5CFE110E3CFF8018583C801D7
:1040C0000E94A30354C0EE2001F32091F203822F3B
:1040D00082958F7090E0029734F28091ED03909179
:1040E000EE039A8389831B82DD82CC822E83CE01EC
:1040F0000196B7CF64177507D0F5FE2CEE2029F294
:10410000E21327C0931325C02091F20320FD18C0AD
:10411000822F82958F70482F50E04115510581F014
:10412000F80125834F30510541F08F5F982F92950C
:10413000907F822F8F70892B8583C8010E94A303F3
:1041400086E0F801ADEEB3E001900D928A95E1F7BB
:1041500052C0C8010E94562D811185CF8091F20373
:1041600081608093F203C8010E94A30344C086E0EB
:10417000D5011D928A95E9F73EC0EE2009F485CF5E
:10418000C8010E94562DF82E882309F47ECF86E0C0
:10419000F801ADEEB3E001900D928A95E1F78091C0
:1041A000ED039091EE030E94621F0E94F11E23C056
:1041B0003D872E878D859E850E94621F292F22951F
:1041C0002F70223028F49F7039F0811105C00BC088
:1041D000243028F49F7049F4805E883020F0C801B4
:1041E0000E94A3039F2CF92C06C0D80115969C9120
:1041F000907F91F7F8CF8F2D6196EBE00C945D2FB7
:10420000E6E6F4E095E0E731F90729F08183608381
:1042100042833396F7CF0895FC01EE0FFF1F8E0FF8
:104220009F1FFC01EA59FB4F61834083228308955D
:10423000E7E2F5E0248134E0231B08F420E0248346
:10424000809165048160809365040895E7E2F5E05C
:10425000248134E0230F08F42FEF24838091650438
:104260008160809365040895539A8BB1877F9BB1D9
:1042700098602FB7F894E6E6F4E035E0E731F3070D
:1042800089F0319148E09BB9000000C037FF8BB93D
:10429000330F000000C000C000C08BB900C04A95B9
:1042A00091F7EBCF2FBF8FE594E00197F1F700C0B6
:1042B000000008952FB7F8948091F6029091F702CC
:1042C000A091F802B091F9022FBF08951F920F92AA
:1042D0000FB60F9211248F939F93AF93BF9380914A
:1042E0002105811113C08091F6029091F702A091EF
:1042F000F802B091F9024196A11DB11D8093F6021A
:104300009093F702A093F802B093F902BF91AF9196
:104310009F918F910F900FBE0F901F901895209135
:104320001F05309120052817390771F0909320055B
:1043300080931F05E0911D05F0911E05309721F037
:104340000084F185E02D0995089520911B05309199
:104350001C052817390771F090931C0580931B05E5
:10436000E0911D05F0911E05309721F00680F78140
:10437000E02D09950895E0911D05F0911E053097F7
:1043800029F00190F081E02D0995089580E00895CD
:10439000CF93DF93C7EAD1E060E0CE010E94A02E68
:1043A0002196C11584E0D807B9F7DF91CF91089520
:1043B0001F93CF93DF93962F8430E8F46430D8F4C2
:1043C0004C30C8F4632F122FC42FD0E0CC0FDD1F68
:1043D00028E1929FC00DD11D112490E6899FC00D48
:1043E000D11D1124CE0187960E94A02E612FCE01EF
:1043F00088960E94A02EDF91CF911F910895A0E092
:10440000B0E0E5E0F2E20C94422FA12CE12CF12C7B
:10441000B12C00E010E0C0E0D0E06701C00ED11E7A
:10442000FE01EE0FFF1FEC0DFD1DE659FD4F25911E
:1044300034914C2F6B2D8A2D0E94D8212196CC309F
:10444000D10571F7085E1F4FB39484E0B812E3CF33
:1044500080E6E80EF11CA39484E0A812D9CFCDB772
:10446000DEB7EAE00C945E2F0F931F93CF93DF9398
:10447000843008F56430F8F44C30E8F4C42FD0E010
:10448000CC0FDD1F28E1629FC00DD11D112430E645
:10449000839FC00DD11D1124CE0187960E94822ECC
:1044A00090E0182F0027CE0188960E94822E980156
:1044B000282BC90102C080E090E0DF91CF911F91CD
:1044C0000F910895843048F4743038F46C3028F437
:1044D000462F672F0E943422089580E090E00895CF
:1044E00080911A05882349F0809119058D7D80936C
:1044F00019050E94721E10921A05089580911A05DE
:1045000081110FC01092FE020E94651E0E945A2166
:1045100088579C4E909318058093170581E08093EF
:104520001A05089586E290E00E94A02E0895CF9388
:10453000C82F811102C06FEF01C062E283E290E0F8
:104540000E94A02EC11102C06FEF01C066E084E29C
:1045500090E00E94A02EC11102C06FEF01C062E185
:1045600085E290E00E94A02ECF91089580E00E9405
:10457000972260E070E0CB010E9492220E94FF210E
:104580000E94C82181E00E949722089583E290E072
:104590000E94822E823281F484E290E00E94822E78
:1045A000863051F485E290E00E94822E91E08231C3
:1045B00009F090E0892F01C080E081700895882380
:1045C00011F0FA0101C0FB010995089590912705AA
:1045D000937071F08093280560932905493C08F099
:1045E00048EC40932A0580916504282B20936504AC
:1045F0000895E7E2F5E0438124E0421B08F440E03F
:10460000818121E0628190E00E94E6220895E7E244
:10461000F5E0438124E0420F08F44FEF818121E06F
:10462000628190E00E94E6220895E7E2F5E062816F
:1046300024E0621B08F460E0818121E0438190E086
:104640000E94E6220895E7E2F5E0628124E0620F2D
:1046500008F46FEF818121E0438190E00E94E6221F
:104660000895E7E2F5E0818190E021E043816281F5
:1046700004970E94E6220895E7E2F5E0818190E048
:1046800021E04381628104960E94E6220895909180
:1046900027059370A1F0811102C0946007C08F318B
:1046A00010F0986703C0880F880F982B9093270508
:1046B0001092130180916504682B6093650408953E
:1046C0008091270586958695815009F48EE161E0F9
:1046D0000E944723089580912705869586958F5FD0
:1046E0008F3108F081E061E00E94472308958091B6
:1046F0002705837011F010921301809127058C7F9C
:1047000080932705089580912705837011F41092F6
:104710001301809127058C7F816080932705089580
:10472000A0E0B0E0E6E9F3E20C943C2F80915B045A
:1047300090915C04A0915D04B0915E042FB7F89451
:10474000C090F602D090F702E090F802F090F902E3
:104750002FBFC81AD90AEA0AFB0A0E940C154B019E
:104760005C0160935B0470935C0480935D049093A0
:104770005E04409160045091610460916204709104
:1047800063044C0D5D1D6E1D7F1D409360045093AE
:1047900061046093620470936304A0913204E2E3C5
:1047A000F4E08A2F90E044244A94542C612C712C1C
:1047B0004C185D086E087F08A917A1F0C18DD28D35
:1047C0008E0120E030E0401651066206730610F4B8
:1047D000815005C09E012C0D3D1D328F218F9F5FA2
:1047E0003296EACF8093320480916404811108C02C
:1047F00081E0413C544D6140710518F480E001C0F6
:1048000081E080FD08C0C09127058C2F837019F0CE
:10481000C695C69501C0C0E0809113018130E9F0D2
:1048200038F0823009F495C0833009F49FC0C9C0C4
:10483000109214018092230590922405A0922505E0
:10484000B092260589E2E2E3F4E0ADE2B5E0019042
:104850000D928A95E1F781E086C08C2F0E947B162D
:10486000CC2309F4AEC0C0911401C1508CE0C89FA4
:10487000C02D1124DCE0DC0FDC3308F0DBE3909189
:10488000560580915F04892B0E94CC08282F30E0C8
:1048900080912A052130310511F460E80BC02230E7
:1048A000310511F465E506C02330310511F46BE2E2
:1048B00001C06FEB7FEF0E94B72AF62EE72ED82EAD
:1048C0000D2F10E08C2F90E0801791076CF4FC0105
:1048D000E25CFD4F208121FF05C02D2D4F2D6E2D57
:1048E0000E947816CF5FEECF0E94BB2180FBEE24A2
:1048F000E0F881FBFF24F0F882FBCC27C0F960E0F0
:104900007FEF80912A050E94B72A162FD72F082FF4
:10491000EE2039F0282F462F672F8AE290E00E9480
:104920007816F11004C080911A05882339F0202FE1
:10493000412F6D2F8BE290E00E947816CC2309F472
:1049400040C0202F412F6D2F8CE290E00E947816FE
:1049500038C0C093120180912705837080931101A4
:104960000E94342183E0809313012BC08091650461
:10497000882351F046E050E06CE170E087E295E07A
:104980000E94902E109265044091230550912405B9
:1049900060912505709126052FB7F8948091F60255
:1049A0009091F702A091F802B091F9022FBF841BF9
:1049B000950BA60BB70B4097A105B10510F010920F
:1049C0001301CDB7DEB7E0E10C94582FA0E0B0E0C2
:1049D000ECEEF4E20C94422FEC018AE0A82E288140
:1049E000222309F4B7C0213009F048C08981813001
:1049F00071F48E010E5F1F4F8A81893319F060E0D8
:104A000070E002C060E570E00E945A2E08C082305B
:104A100041F48E010E5F1F4F8A810E94E32DE80151
:104A200088C0833039F48E010E5F1F4F8A810E9447
:104A3000A82DF5CF843011F021967BC02A812296D3
:104A400080E090E030E0205331092A30310558F4FD
:104A5000A89EA001A99E500D1124C901840F951F85
:104A600021962881EFCF009709F463C0EFE9FFE0BA
:104A70003197F1F700C000000197F5CFE22FF0E089
:104A8000E65EFB4FB490822F86958695869590E0E2
:104A9000FC01E65FFB4FE4902770F12C022E02C070
:104AA000F594E7940A94E2F7F1E0EF22FF24FC0189
:104AB000E650FC4FC490D12C022E02C0D594C7946E
:104AC0000A94E2F731E0C322DD24FC01E651FC4FF9
:104AD000049110E002C0159507952A95E2F7017040
:104AE0001127E114F10419F081EE0E94E32DC114A5
:104AF000D10439F186EE0E94E32D89E3B816D9F08E
:104B000060E070E08B2D0E945A2EC114D10419F080
:104B100086EE0E94A82DE114F10419F081EE0E94A6
:104B2000A82D0115110529F060E070E08CE20E94CB
:104B30005A2E219654CF60E570E089E30E945A2EE8
:104B4000E7CFE9E3BE12DCCF60E570E089E30E94C5
:104B50005A2EE1CFCDB7DEB7EAE00C945E2FCF93AB
:104B6000DF93E09117018E2F90E0FC01EC56F109E4
:104B7000E830F10508F048C0E459FF4F0C942D2FA0
:104B80000E94772341C00E9483233EC0E0911C0114
:104B9000F0911D01C381D0E0E0911C01F0911D0155
:104BA000848190E0C817D9077CF52281418160811A
:104BB000CE010E9478162196EFCFE0911C01F09172
:104BC0001D0180810E94452D1FC0E0911C01F091C4
:104BD0001D0180810E94382D17C080E00CC0E0913B
:104BE0001C01F0911D0181E090E0008002C0880F5F
:104BF000991F0A94E2F70E94332D06C080911C0190
:104C000090911D010E94E624DF91CF91089580913B
:104C10005605982F9670963011F4886001C0877FF2
:104C20000E94332D0895A7E0B0E0E9E1F6E20C948C
:104C30003A2F282E4B01209114018CE0289F802DC3
:104C400011248E83182F145F1C3308F01BE330915E
:104C50002D0539839E81911708F07CC08E81682EC6
:104C6000712CF301E25CFD4F908180911501892345
:104C700009F46CC03090280540902905522C1F8201
:104C8000C301880F991FDC01A853BE4FBB83AA83C1
:104C9000C301880F991FFC01E753FE4FFD83EC838E
:104CA000F9815F1608F040C0E52CF12CAA81BB8188
:104CB000CC90D12CF701E35DFA4F8181C81AD1085D
:104CC000AC81BD81AC90B12C8185A81AB108CC9C77
:104CD0009001CD9C300D300D1124AA9CC001AB9CDD
:104CE000900D900D1124820F931F0E94532A082FBC
:104CF00060912B0521E0620F08F46FEFF701EE0FD2
:104D0000FF1FE35DFA4F818D928D0E94AD2A7C01D9
:104D10009501A601632D742D8F81F4010995362E1E
:104D2000472E8F835394BCCF20912A058F81382F33
:104D3000329F312D1124832F632D742D0E94B72AA9
:104D4000462F282F672FC3010E9478168E818F5F10
:104D50008E8380CF81E01B3308F080E02796E2E16C
:104D60000C94562FA0E0B0E0E8EBF6E20C94442F50
:104D70008C01C09114018CE0C89FC02D1124DCE08F
:104D8000DC0FDC3308F0DBE320912B0531E0230F4F
:104D900008F42FEF30E040E050E06FEF7FEF80E06D
:104DA00090E00E940E2F7901CD1708F041C0CC2E63
:104DB000D12CF601E25CFD4F908180911501892391
:104DC000A9F190912D05915097FD15C0492F092EFD
:104DD000000C550BFA01E35DFA4F8189C813F3CF3C
:104DE000440F551FFA01E35DFA4F218D328D2E15C8
:104DF0003F0548F701C0970160912B0541E0640F22
:104E000008F46FEFC9010E94AD2AAC01609128053A
:104E10007091290580912A05F80109950E94B72A09
:104E2000462F282F672FC6010E947816CF5FBCCF70
:104E300081E0DB3308F080E0CDB7DEB7E8E00C942A
:104E4000602FA0E0B0E0E7E2F7E20C94452F8C0180
:104E5000C09114018CE0C89FC02D1124DCE0DC0F50
:104E6000DC3308F0DBE360912B056695669521E065
:104E7000620F08F46FEF80912305909124050E9442
:104E8000AD2AD82ECD17F0F4EC2EF12CF701E25C10
:104E9000FD4F908180911501892391F06091280543
:104EA0007091290580912A052D2D4C2FF801099527
:104EB0000E94B72A462F282F672FC7010E94781615
:104EC000CF5FE0CF81E0DB3308F080E0CDB7DEB725
:104ED000E7E00C94612FA0E0B0E0E1E7F7E20C948A
:104EE000412F6C01C09114018CE0C89FC02D11248A
:104EF000DCE0DC0FDC3308F0DBE360912B0566952A
:104F0000669580912305909124050E94AD2A182F63
:104F100080E4810F0E941D2A90E8F92EF80E812F5F
:104F20000E941D2A20E8922E980ECD1700F5AC2E77
:104F3000B12CF501E25CFD4F908180911501892330
:104F4000A1F0609128057091290580912A05E12E34
:104F50000C2F292D4F2DF60109950E94B72A462FB7
:104F6000282F672FC5010E947816CF5FDECF81E022
:104F7000DB3308F080E0CDB7DEB7EBE00C945D2FBB
:104F80006F927F928F929F92AF92BF92CF92DF9259
:104F9000EF920F931F93CF93DF933C01C0911401C5
:104FA0008CE0C89FC02D1124DCE0DC0FDC3308F05E
:104FB000DBE360912B056695809123059091240594
:104FC0000E94AD2A182FCD1708F044C08C2E912CCA
:104FD000F401E25CFD4F9081809115018923C1F1BC
:104FE000F401EE0FFF1FE853FE4FC080D12C80E785
:104FF000C81AD108F401EE0FFF1FE856FE4FA1A812
:10500000B12CE0E2AE1AB108CC9C9001CD9C300DE1
:10501000300D1124AA9CC001AB9C900D900D112461
:10502000820F931F0E94532A082F609128057091C8
:10503000290580912A05E12E9501A601F301099524
:105040000E94B72A462F282F672FC4010E94781686
:10505000CF5FB9CF81E0DB3308F080E0DF91CF9103
:105060001F910F91EF90DF90CF90BF90AF909F90E6
:105070008F907F906F900895A0E0B0E0E2E4F8E2B6
:105080000C94442F6C01C09114018CE0C89FC02D7A
:105090001124DCE0DC0FDC3308F0DBE360912B054E
:1050A000669580912305909124050E94AD2A182FC2
:1050B000CD1778F5EC2EF12CF701E25CFD4F9081D5
:1050C00080911501892319F1F701EE0FFF1FE856B2
:1050D000FE4F21A930E020523109F701EE0FFF1FEA
:1050E000E853FE4F408150E0405751096091280538
:1050F0007091290580912A05012FF60109950E94DA
:10510000B72A462F282F672FC7010E947816CF5F36
:10511000CFCF81E0DB3308F080E0CDB7DEB7E8E049
:105120000C94602FEF92FF920F931F93CF93DF9316
:105130007C018B010E949314811119C0E7010115B4
:105140001105A1F08091E80085FD0AC08091E8007A
:105150008E778093E8000E949314882381F307C020
:1051600089918093F10001501109E9CF80E0CDB71A
:10517000DEB7E6E00C94622FCF9320912205243015
:10518000F9F4C091E900CF703091EC00232F217029
:1051900030FD20E8C22B22E02093E9002091E800B6
:1051A00020FF0BC040E050E060E270E00E949228D7
:1051B0008091E8008E778093E800CF70C093E9007B
:1051C000CF9108950F931F93522F10E0F801EE0F27
:1051D000FF1FE856FE4FE1A9F0E0B0979F01520390
:1051E000D001539FB00D1124000F111FF801E85397
:1051F000FE4F008110E00057110940039001419FCC
:10520000300D11242A0F3B1F37FF02C021583F4F9A
:10521000220F232F221F330B620F1F910F9108952E
:10522000EF920F931F9393E0099F8001112415952E
:1052300007956E2D600F1F910F91EF900895E42F49
:10524000F0E0EE0FFF1FE856FE4F61A9621B0895C4
:10525000E42FF0E0EE0FFF1FE853FE4F6081621B6A
:105260000895622F0895E42FF0E0EE0FFF1FE8533A
:10527000FE4F408134EE439F412D1124E82FF0E092
:1052800050E0445E5F4FDA01A21BB1099D01B7FFF8
:1052900003C031952195310993E0220F331F9A9570
:1052A000E1F7AF01421B530B9A0157FF02C020E008
:1052B00030E0582F259F212D1124822F0895E42FAF
:1052C000F0E0EE0FFF1FE853FE4F408134EE439FA6
:1052D000412D1124E72FF0E050E0445E5F4FDA01EA
:1052E000A21BB1099D01B7FF03C03195219531097A
:1052F00093E0220F331F9A95E1F7AF01421B530B46
:105300009A0157FF02C020E030E0279F212D112491
:10531000722F0895FC019B01009721F477FF2BC0A9
:1053200080E80895AC0197FF04C044275527481B27
:10533000590BB901640F751F37FD0CC0241B350BC9
:10534000C901A5E0880F991FAA95E1F70E94D82E00
:1053500080E20CC0CB0165E0880F991F6A95E1F7E8
:10536000BA01621B730B0E94D82E80E6861BF7FFE2
:1053700003C08195089580E00895EF920F93CF9335
:10538000DF93D72FC82FC9010E19BA010E948A29AD
:10539000602F681B7D2F8C2FDF91CF910F91EF90A5
:1053A00008950F93CF93DF93D72FC82FC901BA0168
:1053B0000E948A29682F600F7D2F8C2FDF91CF915B
:1053C0000F910895FF920F931F93CF93DF93F62EC3
:1053D000D72F182FC901C12FC01BBA010E948A29DB
:1053E000982F990F890FC81B2C2F219F212D112435
:1053F000822F6F2D7D2FCDB7DEB7E5E00C94632FA4
:10540000FF920F931F93CF93DF93F62E172FD82F72
:10541000C901C72FC01BBA010E948A29982F990F72
:10542000890F7C2F781B719F712D11246F2D8D2F6B
:10543000CDB7DEB7E5E00C94632F482F982F46FDDB
:105440009095E92FEF739F7046FD9F5FE295EF7097
:10545000EE0FF0E0E758FD4F2181299F802D212D8F
:10546000112482958F702295207F822B3081982F76
:10547000930F892F47FD81958058089540911E0113
:1054800050911F0125E038E0429FC001439F900DDD
:10549000529F900D1124875E994C90931F01809329
:1054A0001E01890F0895BC018230910508F408950A
:1054B000613E8EE1780748F49B0195E0369527958B
:1054C0009A95E1F748E0420F01C04FEF91E0242F99
:1054D00030E0290F311D35952795229FF001239F3C
:1054E000F00DF00D11246E177F0718F44FEF420FE7
:1054F00004C02F3F39F091E0920F491740F78FEF2A
:10550000890F08958FEF08950F93CF93DF93D72FCF
:10551000C82F47FD4195E8E3F0E0CF01841B9109D6
:1055200047FD9395889FB001899F700D700D1124E0
:10553000229FC001239F900D900D1124860F971F6D
:105540000E94532A682F660F860F682F600F7D2FE9
:105550008C2FDF91CF910F91089520E030E0869F4E
:10556000212D969F200D311D1124C9010895A0E021
:10557000B0E0EDEBFAE20C94442FF62E472FE82F23
:10558000F0E0711106C0E656FB4F8491782F682F2A
:1055900073C0272F30E0E656FB4FE491FE2F0E2F0D
:1055A00010E056E0659FC0011124CFEFD0E0BE01AE
:1055B0000E94C42E5BEA5603C001579F900D112430
:1055C0008F0D911D8F0D911D982F990F980F7E01B2
:1055D000E21AF30AE09ED001E19EB00DF09EB00DFC
:1055E00011248B2F499FA0011124452F55277E019F
:1055F000E41AF50AE09EA001E19E500DF09E500DC8
:1056000011246E01C91AD108C29E7001C39EF00C0C
:10561000D29EF00C11242F2D3327C21BD30BC09F19
:105620009001C19F300DD09F300D1124932F623017
:10563000710591F048F461157105E1F06130710573
:10564000B9F49E2FE52F16C06430710569F040F063
:105650006630710579F00CC09E2FEB2F832F0AC0A6
:10566000EB2F8F2F952F06C09B2F8E2FE32F02C07D
:105670009B2F852F7E2F692FCDB7DEB7E8E00C94E6
:10568000602F0E945A2120916005211104C02091B1
:105690006105222321F090935D0580935C052091A4
:1056A0006205211104C020916305222321F090930B
:1056B0005B0580935A05E0911D05F0911E0530971A
:1056C00049F082E080935E050480F581E02D8EE54F
:1056D00095E009950895803F39F49091610597FF11
:1056E00035C01092610559C0813F29F49091610540
:1056F0001916BCF32BC090916005823F29F497FFE7
:1057000025C01092600549C0833F19F41916CCF3E7
:105710001DC090916205893F29F41916BCF41092BE
:1057200062053BC08A3F19F497FF10C0F8CF8B3F4A
:1057300039F49091630597FF09C0109263052DC05D
:105740008C3F21F4909163051916BCF39CE0980FEF
:10575000953080F421E030E0A90102C0440F551FCC
:105760009A95E2F7CA01809590915F05892380930D
:105770005F0513C08D3F21F4809159058E7F0BC0CA
:105780008E3F21F4809159058D7F05C08F3F29F40C
:10579000809159058B7F8093590580916005811117
:1057A00006C080916105811102C010925805809158
:1057B0006205811106C080916305811102C01092BB
:1057C000570508958091590580FD16C081FD16C0CA
:1057D00082FD18C080915705882391F0883290F49B
:1057E00028E0829FC001112468E270E00E94D82E58
:1057F000862F672B29F007C082E0089584E0089582
:1058000081E0089588E008958091590580FD14C0D5
:1058100081FD14C082FD16C080915805882381F057
:105820008E3180F420E5829FC00111246EE170E08A
:105830000E94D82E862F089584E1089588E2089565
:1058400088E0089580E50895803F21F40E94042CAB
:10585000819504C0813F29F40E94042C8093610546
:105860000895823F21F40E94042C819504C0833F57
:1058700029F40E94042C809360050895893F19F44F
:105880000E94E22B05C08A3F31F40E94E22B8195F1
:105890008093620508958B3F21F40E94E22B81954D
:1058A00004C08C3F29F40E94E22B80936305089585
:1058B0009CE0980F953078F421E030E0A90102C017
:1058C000440F551F9A95E2F7CA0190915F05892B05
:1058D00080935F0508958D3F21F480915905816083
:1058E0000BC08E3F21F480915905826005C08F3F27
:1058F00029F480915905846080935905089580E0CA
:1059000090E00E94A52180E090E00E948F211092FB
:1059100019050E94721EEEE5F5E086E0DF011D929A
:105920008A95E9F71092580510925705109259057B
:105930000E94412B0895CF92DF92FF920F931F9305
:10594000CF93DF936C010091560580915F04082B83
:10595000C7E0D0E010E0C8010C2E02C095958795F5
:105960000A94E2F780FD04C02197A8F7F12C09C042
:10597000FC2EB6018C2F0E9462220E94521C0197BD
:1059800099F38F2DDF91CF911F910F91FF90DF90B1
:10599000CF900895292F943078F58C3068F590E0F9
:1059A0003CE0239F800D911D1124682F677023E038
:1059B000969587952A95E1F7FC01EE0FFF1FE80FFA
:1059C000F91FEC59FA4F40E050E080E0219130E0BF
:1059D000062E02C0369527950A94E2F721703327E8
:1059E000042E01C0220F0A94EAF7822B4F5F5F4F0B
:1059F0004330510559F7089580E00895292F9430D8
:105A000088F58C3078F590E03CE0239F800D911D67
:105A10001124282F277051E001C0550F2A95EAF76D
:105A200023E0969587952A95E1F7FC01EE0FFF1F7D
:105A3000E80FF91FEC59FA4F20E030E070E04081A8
:105A4000CB01022E02C0969587950A94E2F78170E9
:105A5000819584278523842781932F5F3F4F2330AF
:105A6000310569F70895809356050E947F2C0895AB
:105A700021E030E001C0220F8A95EAF7209580915D
:105A8000560582230E94332D089521E030E001C0A5
:105A9000220F8A95EAF780915605822B0E94332DBA
:105AA000089580935F040E947F2C0895CF93FC019A
:105AB0008081918123813481232B31F09F3F31F408
:105AC00091E08F3F19F403C091E001C090E0C92F2D
:105AD000C17090FD1CC0808191810E94621F9295CF
